:020000040800F2
:10000000E0070020D5120008290200082B02000892
:100010002F02000833020008370200080000000029
:100020000000000000000000000000003B0200088B
:100030003D020008000000003F02000841020008E5
:10004000EF120008EF120008EF120008EF1200088C
:10005000EF120008EF120008EF120008EF1200087C
:10006000EF120008EF120008EF120008EF1200086C
:10007000EF120008EF120008EF120008EF1200085C
:10008000EF120008EF120008EF120008EF1200084C
:10009000EF120008EF120008EF120008EF1200083C
:1000A000EF120008EF120008EF120008EF1200082C
:1000B000EF120008EF120008EF120008EF1200081C
:1000C000EF120008EF120008EF120008EF1200080C
:1000D000EF1200084B120008EF120008EF120008A0
:1000E000EF120008EF120008EF120008EF120008EC
:1000F000EF120008EF120008EF120008EF120008DC
:10010000EF120008EF120008EF120008EF120008CB
:10011000EF120008EF120008EF120008EF120008BB
:10012000EF120008EF120008EF120008EF120008AB
:1001300000F002F800F042F80AA090E8000C8244B7
:100140008344AAF10107DA4501D100F037F8AFF294
:10015000090EBAE80F0013F0010F18BFFB1A43F0A5
:1001600001031847C8250000E8250000103A24BF05
:1001700078C878C1FAD8520724BF30C830C144BF0C
:1001800004680C607047000000230024002500264E
:10019000103A28BF78C1FBD8520728BF30C148BFEA
:1001A0000B607047782902F08B80732902F004827B
:1001B000002070471FB51FBD10B510BD02F060FADA
:1001C0001146FFF7F7FF00F009F802F07EFA03B4DA
:1001D000FFF7F2FF03BC00F0DDFF0000002400F099
:1001E0006FFF4FF4A06001F095F84FF4E13000F09C
:1001F000E0FF00F03FFF00F0E2FE11E000F015FC30
:10020000142094FBF0F100FB114038B90548006858
:1002100008B9012000E0002002490860601CC4B257
:10022000ECE7000094812142704700BFFEE700BF69
:10023000FEE700BFFEE700BFFEE77047704770476C
:10024000704700000CB50020019000906C480068D9
:1002500040F480306A49086000BF6948006800F4D3
:10026000003000900198401C0190009818B9019846
:10027000B0F5A06FF1D16248006800F4003010B111
:100280000120009001E0002000900098012843D157
:100290005C48006840F010005A4908600846006851
:1002A00020F0030008600846006840F00200086083
:1002B00053484068524948600846406848600846CC
:1002C000406840F4806048600846406820F47C1034
:1002D00048600846406840F4E810486008460068F6
:1002E00040F08070086000BF4548006800F0007072
:1002F0000028F9D04248406820F003004049486097
:100300000846406840F00200486000BF3C48406832
:1003100000F00C000828F9D10CBD10B5FFF792FFD2
:1003200010BD10B53648006840F00100344908603F
:10033000084640683449084031494860084600682A
:10034000324908402E4908600846006820F48020A1
:1003500008600846406820F4FE0048604FF41F0023
:100360008860FFF7DAFF4FF000602949086010BD90
:1003700010B5002100200022214B5B6803F00C0126
:1003800021B1042906D0082928D107E0214B224CAD
:10039000236027E01F4B204C236023E0184B5B6851
:1003A00003F47010164B5B6803F48032022303EBF6
:1003B000904022B9194B4343174C23600DE0104B7A
:1003C0005B6803F4003323B1144B4343124C2360A6
:1003D00003E0104B4343104C236003E00D4B0E4CE5
:1003E000236000BF00BF064B5B68C3F303130C4CD4
:1003F000E15C094B1B68CB40074C236010BD00003B
:1004000000100240002002400000FFF8FFFFF6FE4F
:1004100008ED00E000127A000000002000093D0015
:100420000400002070B50446002520E004F08000A0
:1004300020B18021FE4801F0E8F803E08021FC486B
:1004400001F0E5F8142000F054FE2021F84801F0F6
:10045000DEF8142000F04DFE2021F54801F0D5F81B
:10046000142000F046FE6006040E681CC5B2082D7C
:10047000DCDB70BD70B504460D467E2000EA440604
:100480001021EB4801F0C3F83046FFF7CBFF2846B8
:10049000FFF7C8FF1021E64801F0B7F870BD70B54E
:1004A00000251CE06006040E2021E14801F0AFF8B1
:1004B000142000F01EFE4021DD4801F08CF80128D8
:1004C00001D144F00104142000F013FE2021D8488B
:1004D00001F09BF8142000F00CFE681CC5B2082D3A
:1004E000E0DB204670BD70B504467E2000EA440083
:1004F00040F080051021CE4801F089F82846FFF72A
:1005000091FFFFF7CCFF06461021C94801F07DF8A6
:10051000304670BD70B505460C462846FFF7E3FF30
:10052000064646EA04012846FFF7A4FF70BD70B5F1
:1005300005460C462846FFF7D6FF064626EA040184
:100540002846FFF797FF70BD2DE9FE4F0646884607
:1005500091469A46DDF830B00220029000200190CA
:1005600000900C2E06D00E2E09D1122001901020E2
:10057000009005E0772001903020009000E000BF5F
:1005800000BF019840F080010220FFF773FF802137
:100590000420FFF7CCFF00210120FFF76BFF802133
:1005A0000A20FFF7B7FF002505E018F8051009201D
:1005B000FFF760FF6D1C4D45F7D331460120FFF773
:1005C00059FF0C2E03D180210D20FFF7A3FF4FF41C
:1005D0007A7500BF0420FFF786FF04466D1E35B113
:1005E00004F0010018B9009820400028F2D08021C2
:1005F0000D20FFF79CFF95B30620FFF774FF00F076
:100600001B0068BB002002900198204000F0010010
:1006100008B1012002900C2E24D10A20FFF763FFBD
:1006200004460C20FFF75FFF00F007072FB1601EA4
:1006300007EBC000CBF8000002E0E000CBF80000C0
:1006400004B90124122C00DD1224002505E0092044
:10065000FFF749FF0AF805006D1CA542F7D301E03A
:100660000220029080210C20FFF754FF002101207E
:10067000FFF700FF0298BDE8FE8F2DE9F041074625
:100680008846154604210520FFF751FF002101206F
:10069000FFF7F0FE80210A20FFF73CFF002405E071
:1006A000395D0920FFF7E6FE601CC4B24445F7DB64
:1006B00003210120FFF7DEFEFF2400BF0520FFF726
:1006C00012FF0646601EC4B21CB106F004000028EA
:1006D000F4D02220FFF707FF28702120FFF703FF47
:1006E0006870BDE8F081F0B587B005460E46302051
:1006F0008DF808008DF809500DF10A02022102A8B8
:10070000FFF7BBFF01A802AB042202A900900C2056
:10071000FFF71AFF074667B90198902809D100240E
:1007200004E002A8005D3055601CC4B2102CF8DB58
:1007300000E00227384607B0F0BDF0B587B00646A6
:100740000F46A0208DF808008DF809600DF10A020F
:10075000022102A8FFF791FF01A802AB042202A91F
:1007600000900C20FFF7F0FE054645B901980428DB
:1007700005D19DF8080000F00F000A2800D00225DE
:1007800035BB1022394602A801F062FE002404E0C5
:10079000385D02A90855601CC4B2102CF8DB06AA0B
:1007A000102102A8FFF769FF01A802AB122202A9DB
:1007B00000900C20FFF7C8FE054645B901980428B3
:1007C00005D19DF8080000F00F000A2800D002258E
:1007D000284607B0F0BD2DE9F04387B006460F4626
:1007E000904699468DF808608DF80970002406E05F
:1007F00018F8041002AAA01C1154601CC4B2062CE4
:10080000F6DB002407E019F8041002AA04F108003E
:100810001154601CC4B2062CF5DB01A802AB0C22FB
:1008200002A900900E20FFF78FFE054645B901E0B2
:10083000000801400820FFF756FE00F0080000B94C
:100840000225284607B0BDE8F08370B588B005469C
:1008500093208DF80C0070208DF80D0000208DF88D
:10086000120000240BE0295D03AAA01C11549DF87E
:100870001200295D48408DF81200601CC4B2042C9F
:10088000F1DB0DF11302072103A8FFF7F6FE0821A3
:100890000846FFF74CFE02A803AB092203A900900B
:1008A0000C20FFF751FE064626B90298182801D100
:1008B000002600E00226304608B070BD3EB5054671
:1008C000002446E0285DC11700EB117109110DF8F5
:1008D00014101DF81400092806DD1DF81400373027
:1008E000C0B20DF8140005E01DF814003030C0B29D
:1008F0000DF81400285DC11700EB11710911A0EB70
:100900000111C9B2012202EB44020DF802100120CC
:1009100000EB44001DF8000009280CDD012000EB6D
:1009200044001DF800003730C0B2012101EB440142
:100930000DF801000BE0012000EB44001DF8000061
:100940003030C0B2012101EB44010DF80100601C00
:10095000C4B2042CB6DB00208DF808006946FEA066
:1009600001F052FC3EBDF0B587B0054600270821D6
:100970000846FFF7DCFD00210D20FFF77BFD8021FD
:100980000E20FFF7D4FD93208DF8080020208DF86D
:10099000090001A802AB022202A900900C20FFF777
:1009A000D3FD064686B9002407E002A8005D28555D
:1009B00002A8005D4740601CC4B2042CF5DB02A80D
:1009C000005DB84200D0022680210E20FFF7A2FD74
:1009D000304607B0F0BD70B588B005460C4608211A
:1009E0000846FFF7A4FD07210D20FFF743FD032173
:1009F0001420FFF78FFD8DF80C5002A803AB0122E5
:100A000003A900900C20FFF79FFD06464EB90298FF
:100A1000102806D19DF80C0020709DF80D00607024
:100A200000E00226304608B070BD10B50024CD4964
:100A30005220FFF7D0FFCC4908700846007830B943
:100A400002200870C948FFF78EFFC7490870C648E2
:100A5000007800287BD10220C3490870C348FFF703
:100A60002DFFC2480078C2490978884217D1BF4893
:100A70004078BF494978884211D1BC488078BC4948
:100A8000897888420BD1B948C078B949C978884279
:100A900005D10120B7490870B7A001F0B5FBB348F4
:100AA0000078BB490978884217D1B0484078B849E6
:100AB0004978884211D1AD488078B5498978884213
:100AC0000BD1AA48C078B249C978884205D1012023
:100AD000B0490870B0A001F097FBA4480078B44971
:100AE0000978884217D1A1484078B14949788842AD
:100AF00011D19E488078AE49897888420BD19B48B5
:100B0000C078AB49C978884205D10120A94908704D
:100B1000A9A001F079FB95480078AD490978884291
:100B200019D192484078AA494978884213D18F4810
:100B30008078A749897888420DD18C48C078A4492B
:100B4000C978884207D10120A249087000E025E059
:100B5000A1A001F059FB85480078A5490978884291
:100B600017D182484078A2494978884211D17F48FC
:100B700080789F49897888420BD17C48C0789C490D
:100B8000C978884205D101209A4908709AA001F0DD
:100B90003BFB7648FFF759FE7349087072480078AE
:100BA000A0B9022070490870704B994A0921602051
:100BB000FFF711FE6C4908700846007818B995A037
:100BC00001F022FB02E09AA001F01EFB66480078CB
:100BD00008BB0220644908709B499C480078FFF7D5
:100BE00082FD614908700846007888B998A001F034
:100BF0000BFB002406E09448015D97A001F004FB84
:100C0000601CC4B2102CF6DB60A001F0FDFA02E01B
:100C100093A001F0F9FA5448007898B9022052499B
:100C20000870944989480078FFF787FD4E4908709D
:100C30000846007818B990A001F0E6FA02E094A006
:100C400001F0E2FA4848007808BB022046490870E3
:100C50007D497E480078FFF746FD43490870084605
:100C6000007888B97AA001F0CFFA002406E076482F
:100C7000015D79A001F0C8FA601CC4B2102CF6DB4B
:100C800042A001F0C1FA02E075A001F0BDFA3648B9
:100C9000007828B9022034490870642000F04DFA29
:100CA00010BD10B51420FFF71EFC044604F003002D
:100CB00018B903211420FFF72DFC10BD10B5044610
:100CC000412C24D108210846FFF731FC3D21112099
:100CD000FFF7D0FB86211720FFF7CCFB7F212620D2
:100CE000FFF7C8FB1E212D20FFF7C4FB00212C209D
:100CF000FFF7C0FB8D212A20FFF7BCFB3E212B20F4
:100D0000FFF7B8FB022000F0F4F9FFF7CAFF10BDAF
:100D100010B50121634800F078FC012000F0E9F9EA
:100D20000121604800F073FC012000F0E2F901218C
:100D30005C4800F06AFC012000F0DBF90F21012083
:100D4000FFF798FB00BF0120FFF7CDFB00F010007C
:100D50000028F8D10120A7E049443E3E3E25730D0E
:100D60000A00000014000020660000201600002089
:100D7000200000201A0000200D0A546865205573D9
:100D800065722069733A636172645F300D0A000016
:100D9000240000201B0000200D0A546865205573B4
:100DA00065722069733A636172645F310D0A0000F5
:100DB000280000201C0000200D0A5468652055738F
:100DC00065722069733A636172645F320D0A0000D4
:100DD0002C0000201D0000200D0A5468652055736A
:100DE00065722069733A636172645F330D0A0000B3
:100DF000300000201E0000200D0A54686520557345
:100E000065722069733A636172645F340D0A000091
:100E100034000020506364417574685374617465D4
:100E2000282920737563636573730D0A0000000041
:100E30005063644175746853746174652829206631
:100E400061696C65640D0A0088000020670000205D
:100E5000444154413A00000025303278000000003F
:100E6000506364526561642829206661696C656419
:100E70000D0A0000560000205063645772697465C3
:100E8000282920737563636573730D0A00000000E1
:100E900050636457726974652829206661696C65BE
:100EA000640D0A00000C014000F023F93D211120DF
:100EB000FFF7E0FA1E212D20FFF7DCFA00212C209D
:100EC000FFF7D8FA8D212A20FFF7D4FA3E212B20F4
:100ED000FFF7D0FA40211520FFF7CCFA10BD00B57E
:100EE00087B001210C2000F09FFD0121080300F0D4
:100EF000A8FD1020ADF818008DF81B0003208DF818
:100F00001A0006A9584800F0D3FA2020ADF81800BE
:100F100010208DF81B0003208DF81A0006A95248F6
:100F200000F0C6FA4020ADF8180004208DF81B0030
:100F300003208DF81A0006A94B4800F0B9FA80206A
:100F4000ADF8180010208DF81B0003208DF81A0052
:100F500006A9454800F0ACFA0120ADF818001020B1
:100F60008DF81B0003208DF81A0006A93F4800F0F9
:100F70009FFA0020ADF804004FF48270ADF806002F
:100F80000020ADF808000220ADF80A000120ADF8FD
:100F90000C004002ADF80E003820ADF81000002023
:100FA000ADF812000720ADF8140001A9304800F098
:100FB000C9FF01212E4801F06AF807B000BD10B545
:100FC000FFF78DFF0121294800F01FFB1021264863
:100FD00000F01BFBFFF79CFE4120FFF76FFE10BDEA
:100FE00010B503211420FFF7A2FA10BD00B587B099
:100FF00050208DF8080000208DF809000DF10A023C
:10100000022102A8FFF739FB01A802AB042202A9C2
:1010100000900C20FFF798FA002007B000BDF8B54B
:1010200004460D4617461E46002000906946522091
:10103000FFF7D1FC6846FFF796FC2046FFF705FC5A
:1010400023462A4610216020FFF7C5FB27B1314611
:101050001020FFF748FB03E031461020FFF76DFB3F
:10106000FFF7C4FFF8BD000000080140000C01407C
:101070000030014008B50121482000F0D5FC2020B7
:10108000ADF8000010208DF8030003208DF8020059
:101090006946094800F00CFA2021074800F0B5FA2B
:1010A0002020ADF800006946044800F001FA202134
:1010B000024800F0AAFA08BD000C014000180140E7
:1010C00010B56FF0040000F074F92E4800682E4946
:1010D000B0FBF1F02D4908700846007800EB4001A4
:1010E000C1EBC0104FF6FF7101EAC000284908802B
:1010F00010BD0146254A12784A434FF0E0235A6159
:1011000000229A611A46126942F001021A6100BF78
:101110004FF0E022106900F001021AB100F48032B1
:10112000002AF5D04FF0E022126922F001024FF0C0
:10113000E0231A6100229A6170470146144A12881E
:101140004A434FF0E0235A6100229A611A4612691D
:1011500042F001021A6100BF4FF0E022106900F076
:1011600001021AB100F48032002AF5D04FF0E022DB
:10117000126922F001024FF0E0231A6100229A6105
:10118000704700000000002000127A006800002074
:101190006A000020014600BF704700BF494A12881C
:1011A00002F04002002AF9D0C2B2464B1B1D1A8041
:1011B000704710B586B00446012144F2040000F0E7
:1011C00033FC4FF40070ADF8140003208DF81600C6
:1011D00018208DF8170005A93B4800F069F94FF475
:1011E0008060ADF8140004208DF8170005A936487A
:1011F00000F05EF925208DF8000003208DF8010035
:101200008DF8020001208DF80300684600F087F891
:1012100001940020ADF80800ADF80A00ADF80C000C
:10122000ADF810000C20ADF80E0001A9254800F023
:10123000A2FC012240F22551224800F034FD012198
:10124000204800F024FD06B010BD10B540F2255135
:101250001C4800F00DFE10B31A4800F089FDC4B21E
:101260001A48008800F40040C8B91848008800F403
:10127000804060B10A2C03D000201449088020E08F
:101280001248008840F400401049088019E00D2CF5
:1012900006D10E48008840F480400C49088010E0D8
:1012A0000A480088C0F30D0009490C54074800881B
:1012B000401C0649088008460088C72801DD002038
:1012C000088010BD00380140000801407000002077
:1012D000B80000200948804709480047FEE7FEE7BC
:1012E000FEE7FEE7FEE7FEE7FEE7FEE7FEE7FEE7D6
:1012F00004480549054A064B7047000023030008CF
:1013000031010008E0010020E0070020E003002098
:10131000E003002031490143314A1160704770B544
:10132000002100230F22C47804B32D4C246804F458
:10133000E064C4F5E064210AC1F10403CA404478C2
:1013400004FA03F18478144021430901254C0678FE
:10135000A155047804F01F050124AC4005786D11F7
:10136000AD0005F1E025C5F8004109E0047804F07E
:101370001F050124AC401C4D0678761145F8264027
:1013800070BD1A4A0A400243154B1B1F1A60704772
:1013900039B1134A121D12680243114B1B1D1A600A
:1013A00006E00F4A121D126882430D4B1B1D1A6086
:1013B0007047042808D14FF0E021096941F0040189
:1013C0004FF0E022116107E04FF0E021096921F0C0
:1013D00004014FF0E0221161704700000000FA059F
:1013E0000CED00E000E400E080E100E080FFFF1F82
:1013F00010B50446CC48844208D10121042000F0F5
:101400002DFB0021042000F029FB46E0C748844260
:1014100008D10121082000F021FB0021082000F064
:101420001DFB3AE0C248844208D10121102000F09F
:1014300015FB0021102000F011FB2EE0BD48844276
:1014400008D10121202000F009FB0021202000F01C
:1014500005FB22E0B848844208D10121402000F079
:10146000FDFA0021402000F0F9FA16E0B34884426A
:1014700008D10121802000F0F1FA0021802000F045
:10148000EDFA0AE0AE48844207D10121801500F050
:10149000E5FA0021A01500F0E1FA10BD10B5012118
:1014A000084600F0DBFA0021012000F0D7FA10BD59
:1014B0002DE9F041024600250026002000230024EB
:1014C000002791F803C00CF00F0591F803C00CF051
:1014D000100CBCF1000F03D091F802C04CEA0505D6
:1014E00091F800C0BCF1000F31D0146800202BE04F
:1014F0004FF0010C0CFA00F3B1F800C00CEA03063F
:101500009E4220D183004FF00F0C0CFA03F7BC432E
:1015100005FA03FC4CEA040491F803C0BCF1280F5F
:1015200006D14FF0010C0CFA00FCC2F814C00AE01E
:1015300091F803C0BCF1480F05D14FF0010C0CFA33
:1015400000FCC2F810C0401C0828D1D31460B1F8C8
:1015500000C0BCF1FF0F34DD546800202EE000F124
:10156000080C4FF0010808FA0CF3B1F800C00CEABF
:1015700003069E4221D183004FF00F0C0CFA03F7B3
:10158000BC4305FA03FC4CEA040491F803C0BCF127
:10159000280F05D100F1080C08FA0CF8C2F81480E5
:1015A00091F803C0BCF1480F07D100F1080C4FF0CF
:1015B000010808FA0CF8C2F81080401C0828CED3A5
:1015C0005460BDE8F0814FF6FF7101800221817007
:1015D0000421C17070470246002093680B400BB194
:1015E000012000E0002070470146886880B2704703
:1015F00002460020D3680B400BB1012000E0002020
:1016000070470146C86880B2704701617047416108
:1016100070470AB1016100E041617047C1607047E5
:101620004FF480320A4382618161826182698269FA
:10163000704702460020434B18684FF680731840ED
:1016400040EA021008433F4B186070473E49C861AA
:101650007047F0B50A46002300240021002500F061
:101660000046B6F1004F02D1364EF16901E0354E29
:101670007168C0F3034583B200F44016B6F5401F0D
:1016800008D121F070612F4E766826F070662D4FDC
:101690007E6012E000F48016B6F5801F06D10326A6
:1016A00006FA05F4A14341F0706106E0460D3601EB
:1016B00003FA06F6B14341F0706122B1460D3601DE
:1016C00003FA06F6314300F00046B6F1004F02D1AE
:1016D0001C4EF16101E01B4E7160F0BD30B500227F
:1016E0008B071C0F0F2303FA04F2164B08338C10E0
:1016F00053F824309343134C08348D1044F82530AC
:1017000023468C1053F824308C07240F00FA04F47D
:1017100023430C4C08348D1044F8253030BD0A4961
:10172000DC3108607047000000080140000C0140F7
:10173000001001400014014000180140001C01404D
:10174000002001400000014000002042DF48006806
:1017500040F00100DD49086008464068DC49084067
:10176000DA49486008460068DA490840D749086005
:101770000846006820F4802008600846406820F48D
:10178000FE0048604FF41F0088607047CF49096829
:1017900021F48031CD4A11601146096821F480217D
:1017A0001160B0F5803F03D0B0F5802F0ED106E078
:1017B000C649096841F48031C44A116007E0C34951
:1017C000096841F4A021C14A116000E000BF00BFD8
:1017D000704710B501460022002300204A11012A5B
:1017E00002D1BA4C236806E0022A02D1B74C236A20
:1017F00001E0B64C636A01F01F02012494401C40D2
:101800000CB1012000E0002010BD38B50020009090
:101810000024002500BF3120FFF7DBFF05460098BC
:10182000401C00900098B0F5A06F01D0002DF2D0C0
:101830003120FFF7CEFF08B1012400E0002420464C
:1018400038BD01460020A14A106820F0F80040EAA7
:10185000C10010607047A049086070470246002030
:101860009A4B586820F47C1042EA01031843974BC6
:101870005860704798490866704701460020934AAF
:10188000506820F003000843506070478F4840685C
:1018900000F00C007047014600208C4A506820F090
:1018A000F00008435060704701460020874A5068A6
:1018B00020F4E06008435060704701460020834AEE
:1018C000506820F4605040EAC1005060704729B170
:1018D0007E4A527A02437D4B5A7204E07B4A527A26
:1018E00082437A4B5A7270477B49D83108607047FF
:1018F00001460020754A506820F44040084350607B
:1019000070470021714A20321170704A82F820100D
:10191000012802D004280AD104E001216B4A2032B8
:10192000117005E00521694A2032117000E000BF06
:1019300000BF70476949086070476449096A0143FC
:10194000624A11627047654944390860704730B592
:1019500000210022002400235C4D6D6805F00C017D
:1019600021B1042905D0082923D105E05C4D05608B
:1019700022E05B4D05601FE0544D6D6805F4701268
:10198000524D6D6805F48034022505EB92421CB976
:10199000544D554305600BE04C4D6D6805F4003522
:1019A0001DB1504D5543056002E04D4D5543056056
:1019B00002E04B4D056000BF00BF444D6D6805F06F
:1019C000F0010909484D6B5C0568DD4045603F4DFD
:1019D0006D6805F4E061090A434D6B5C4568DD40C4
:1019E00085603A4D6D6805F46051C90A3E4D6B5CE7
:1019F0004568DD40C560354D6D6805F44041890B93
:101A00003A4D6B5CC568B5FBF3F5056130BD29B196
:101A10002E4A526902432D4B5A6104E02B4A526907
:101A200082432A4B5A61704729B1284A926902437E
:101A3000264B9A6104E0254A92698243234B9A61BE
:101A4000704729B1214AD2690243204BDA6104E090
:101A50001E4AD26982431D4BDA61704729B11B4A85
:101A6000D2680243194BDA6004E0184AD268824314
:101A7000164BDA60704729B1144A12690243134BBE
:101A80001A6104E0114A12698243104B1A617047CF
:101A900012494039086070470F49C86470470B49C4
:101AA000C87170470948406A40F080700749486231
:101AB000704701460020054A92680A400AB1012099
:101AC00000E0002070470149887270470010024012
:101AD0000000FFF8FFFFF6FE000042428004424291
:101AE00000127A0000093D007200002082000020F0
:101AF00010B50446FB48844209D101218803FFF751
:101B0000ADFF00214FF48040FFF7A8FF32E0F64818
:101B1000844209D101214804FFF7ADFF00214FF4B1
:101B20000030FFF7A8FF25E0F048844209D10121E9
:101B30008804FFF7A0FF00214FF48020FFF79BFFF0
:101B400018E0EB48844209D10121C804FFF793FF54
:101B500000214FF40020FFF78EFF0BE0E5488442A0
:101B600008D101210805FFF786FF00214FF48010FE
:101B7000FFF781FF10BD2DE9F04786B005460E4600
:101B80000024A24600BFA1460027B08900B100BFD3
:101B90002F462C8A4CF6FF700440F08804432C82B8
:101BA000AC894EF6F3100440B0883189084371893E
:101BB00008430443AC81AC8A4FF6FF400440B0892F
:101BC0000443AC8201A8FFF7C2FEC648874202D197
:101BD000DDF810A001E0DDF80CA0A88900F40040B9
:101BE00040B10AEBCA0000EB0A1031684900B0FBB3
:101BF000F1F807E00AEBCA0000EB0A10316889002F
:101C0000B0FBF1F86420B8FBF0F004012009642176
:101C100001FB1089A88900F4004040B1322000EB9C
:101C2000C900B0FBF1F000F00700044308E03220E7
:101C300000EB09106421B0FBF1F000F00F00044349
:101C40002C8106B0BDE8F0874FF4165101600021E9
:101C50008180C18001810C214181002181817047F7
:101C600010B502460020108A4FF2FF0318400B887F
:101C70004C8823438C882343CC8823431843108209
:101C800010BD0021018041808180C180704721B159
:101C9000828942F40052828104E082894DF6FF730A
:101CA0001A4082817047F0B50346002400260025C3
:101CB000002040F66A17B94200D100BF1846C1F3B0
:101CC000421401F01F06012707FA06F5012C01D185
:101CD0000C3004E0022C01D1103000E014301AB1B5
:101CE00007682F43076002E00768AF430760F0BD55
:101CF0001AB1838A0B43838202E0838A8B438382F7
:101D00007047028A4FF6F0731A400282028A0A4331
:101D10000282704782894FF2FF731A408281828962
:101D20000A438281704721B1828942F00202828196
:101D300004E082894FF6FD731A4082817047028A5F
:101D40004FF6DF731A400282028A0A43028270470A
:101D500021B1028A42F48042028204E0028A4BF6F8
:101D6000FF731A4002827047C1F3080282807047F5
:101D700001468888C0F308007047818941F001015D
:101D800081817047028BD2B20283028B42EA012228
:101D900002837047028B02F47F420283028B0A4364
:101DA0000283704721B1828A42F02002828204E0DD
:101DB000828A4FF6DF731A408282704721B1828A8D
:101DC00042F01002828204E0828A4FF6EF731A40DA
:101DD0008282704721B1828A42F00802828204E046
:101DE000828A4FF6F7731A408282704721B1828946
:101DF00042F40042828103E08289C2F30E028281B2
:101E0000704721B1828A42F40062828204E0828AB1
:101E10004FF2FF731A4082827047828A4FF6FB733B
:101E20001A408282828A0A438282704721B1828A62
:101E300042F00202828204E0828A4FF6FD731A4069
:101E40008282704702460020B1F5007F00D100BFBA
:101E500013880B400BB1012000E00020704701F413
:101E60000072B2F5007F00D100BFCA430280704704
:101E700070B50246002400230025002040F66A16B3
:101E8000B14200D100BFC1F3421501F01F0301268A
:101E900006FA03F3012D02D19689334006E0022DA4
:101EA00002D1168A334001E0968A33400C12012693
:101EB00006FA04F41688344013B10CB1012000E096
:101EC000002070BD10B50022002340F66A14A14224
:101ED00000D100BF0A1201249440A3B2DC43048065
:101EE00010BD0000003801400044004000480040A0
:101EF000004C00400050004010B50446BE488442EB
:101F000008D101218014FFF7A9FD0021A014FFF7DB
:101F1000A5FD16E0B948844208D101210014FFF75D
:101F2000AAFD00212014FFF7A6FD0AE0B448844270
:101F300007D10121C013FFF79EFD0021E013FFF739
:101F40009AFD10BD10B50022028802F441520B88A0
:101F50004C8823438C882343CC8823430C89234318
:101F60004C8923438C892343CC8923431A43028021
:101F7000838B4FF2FF74234083830B8A038210BD4F
:101F80002DE9F04F85B005460C464FF000090227B9
:101F90004FF000084FF0010B0026B246A88B4FF21D
:101FA00040010840A88302202884B5F81C90A0684E
:101FB000022801D100BF38E0A08810B94FF0010B12
:101FC00001E04FF0020B8D48854200D100E000BFD8
:101FD0006846FFF7BCFCDDF800A0E088B0F5007FA4
:101FE0000AD14FEA1A2000EB80004000A168B0FB44
:101FF000F1F0401D86B20BE04FEA4B10BAFBF0F057
:1020000000EB80004000A168B0FBF1F0401D86B2FB
:102010000A20B6FBF0F606F00108A6EB0800C0F3B4
:102020004F074FF6FF7000EA0828022F01DBFF2F51
:1020300002DD02274FF00008E08840EA080038433C
:102040002884A088A189084361880843218808431F
:1020500040F4006040EA0909A5F81C9005B0BDE80D
:10206000F08F0021018041808180C1800181418108
:102070008181C18107210182704700210180418057
:102080008180C1800221816000218181704721B15E
:10209000028842F04002028004E002884FF6BF73DB
:1020A0001A400280704721B1828B42F480628283A1
:1020B00004E0828B4FF6FF331A408283704730B5BD
:1020C000002400230C110125A540ABB21AB185886C
:1020D0001D43858002E085889D43858030BD1AB10F
:1020E00083880B43838002E083888B43838070471F
:1020F000818170470146888970474FF6FF6291429F
:1021000004D0028842F48072028004E002884FF614
:10211000FF631A400280704721B1828842F00402B6
:10212000828004E082884FF6FB731A4082807047F9
:1021300002884FF2FF731A40028002880A4302802D
:102140007047018841F480510180704721B10288B5
:1021500042F40052028004E002884DF6FF731A40F8
:102160000280704702460020012901D0108B00E058
:10217000908A70470146088A7047B1F5804F04D1B4
:10218000028842F48042028004E002884BF6FF732A
:102190001A40028070470246002013890B400BB1A1
:1021A000012000E000207047CA4302817047F0B56B
:1021B0000246002000240023002501F00F0701261D
:1021C000BE40B4B20B1101269E40B3B2968806EA17
:1021D00003051689264016B10DB1012000E000204C
:1021E000F0BD10B5002201F00F040123A3409AB204
:1021F000D343038110BD000000300140003800408F
:10220000003C0040704700000FB4044910B503AA19
:10221000029800F0D5F910BC5DF814FB6C000020AA
:1022200070B5044685690068C10601D5302600E016
:102230002026C00707D070BDD4E901213046904761
:10224000206A401C20626D1EF6D570BD70B5044634
:1022500085690078C00707D170BDD4E9012120202D
:102260009047206A401C20626D1EF6D570BD70B587
:102270000C460546012A05D02878800600D5EA6973
:10228000002302E0012305E05B1C934202D2E05CE4
:102290000028F9D1A869E618C01AA861286A18446C
:1022A00028622846FFF7BCFF04E0D5E9012114F8B5
:1022B000010B9047B442F8D32846FFF7C7FF70BD23
:1022C00070B504460D4621461068AFF300802188A2
:1022D000090502D50F4A7A4402E00E4A7A440E32CA
:1022E000002104F1240305E000F00F060009965DCB
:1022F0005E54491C0028F7D120780023000704D53C
:10230000702D02D009B1022311322046BDE8704081
:1023100000F0E7B8180400002DE9F05F8946044694
:102320004FF0000ADFF824B1FB44C0F820A020469B
:10233000E168884700287DD0252806D0D4E901210E
:102340009047206A401C2062F1E700255F46204646
:10235000E16888472028064607DB312E05D2B819E8
:1023600010F8200C08B10543F1E7A80701D525F0C6
:102370000405C4F81CA00027C4F818A02A2E09D010
:10238000304600F0AFF938B304EB8708303EC8F8A8
:10239000186019E059F8041B204604EB870291618C
:1023A000E1688847012F064618D1E069002820DA45
:1023B00025F020051DE0D8F8180000EB800006EBA2
:1023C00040003038C8F818002046E16888470646C3
:1023D00000F088F90028EED1012F0AD02E2E08D166
:1023E0002046E16888477F1C0646022F45F02005FD
:1023F000C4DBA069002803DA404245F00105A06172
:10240000E80701D025F01005A6B1A6F14100192872
:1024100002D8203645F400654A46314620462560FC
:102420004D46FDF7BFFE60B1012807D0ED1D25F038
:10243000070000E007E000F1080978E705F104096A
:1024400075E730467AE7206ABDE8F09FEE030000AA
:10245000032A40F2308010F0030C00F0158011F8D0
:10246000013BBCF1020F624498BF11F801CB00F8A8
:10247000013B38BF11F8013BA2F1040298BF00F8FC
:1024800001CB38BF00F8013B11F0030300F0AA8034
:10249000083AC0F0088051F8043B083A51F804CBE0
:1024A000A0E80810F5E7121D5CBF51F8043B40F8A6
:1024B000043BAFF30080D20724BF11F8013B11F8B1
:1024C00001CB48BF11F8012B24BF00F8013B00F8F5
:1024D00001CB48BF00F8012B704770477047704729
:1024E00070472DE9F0470D4699469246044600F1A3
:1024F00024080168880604D5E06921F010012160F4
:1025000000E00120A84201DD471B00E00027A1698F
:102510007A1902EB0900081AA0612078C00602D4DB
:102520002046FFF77DFE002608E0D4E901211AF8D5
:1025300006009047206A401C761C20624E45F4DB62
:102540002078C0060AD52046FFF76AFE06E0D4E9E7
:10255000012130209047206A401C2062381EA7F1DC
:102560000107F4DC07E0D4E9012118F805009047E1
:10257000206A401C2062281EA5F10105F3DC2046DC
:10258000FFF764FE2078000602D50220BDE8F08740
:102590000120FBE710B5436913B1AFF3008001E000
:1025A000FFF765FE012010BD127800F124010A70CA
:1025B00000224A700122EDE711684FF0FF32E9E78F
:1025C000074B70B50D467B4400F043F8044628469F
:1025D00000F052F810B14FF0FF3070BD204670BDD2
:1025E000D1EBFFFF10B5203AC0F00B80B1E81850D6
:1025F000203AA0E81850B1E81850A0E81850BFF4ED
:10260000F5AF5FEA027C24BFB1E81850A0E818508B
:1026100044BF18C918C0BDE810405FEA827C24BFDF
:1026200051F8043B40F8043B08BF7047D20728BF6D
:1026300031F8023B48BF11F8012B28BF20F8023BBC
:1026400048BF00F8012B704701694A1C02610878F5
:10265000704700B58FB0CDE90131002105910549E2
:102660007944CDE9031011466846FFF755FE0FB0D7
:1026700000BD0000E5FFFFFF007B00F08000704719
:10268000754600F02BF8AE4605006946534620F02B
:102690000700854618B020B5FEF72AFEBDE82040A9
:1026A0004FF000064FF000074FF000084FF0000B0E
:1026B00021F00701AC46ACE8C009ACE8C009ACE8C1
:1026C000C009ACE8C0098D46704710B50446AFF3A9
:1026D00000802046BDE81040FDF779BD00487047F6
:1026E0008001002030380A2801D2012070470020E4
:1026F000704730313233343536373839414243440C
:102700004546403058003031323334353637383969
:102710006162636465664030780004000008000070
:102720000000000000020001000010004C2700081B
:1027300000000020880000006C010008D427000879
:1027400088000020580700008801000800A24A0401
:102750000000000000000000010203040607080951
:1027600000000000000000000000000049E00598A3
:1027700069666498D0791F39B0B18FA5059E0A8823
:10278000FFFFFFFFFFFFFFFFFFFFFFFFAA070200A2
:1027900009BC000000000000FF078029FFFFFFFFC9
:1027A000FFFF123456789A00FF078029FFFFFFFFD2
:1027B000FFFF000800000000000000000000000013
:1027C00000000102030401020304060708090204D1
:0427D00006080000F7
:0400000508000131BD
:00000001FF
